S013000061746D72656366726172642E7372656386
S11300000C942A000C9447000C9457000C9447005D
S11300100C9447000C9447000C9447000C94470040
S11300200C9447000C9447000C9447000C94470030
S11300300C9447000C9447000C9447000C94470020
S11300400C9447000C9447000C9447000C94470010
S11300500C94470011241FBECFE5D8E0DEBFCDBF0E
S113006010E0A0E6B0E0EAECF1E002C005900D92E9
S1130070A436B107D9F720E0A4E6B0E001C01D9290
S1130080A83CB207E1F70E94AC000C94E3000C9486
S113009000005D9BFECF8CB987E893E10197F1F7EF
S11300A000C0000008955F9BFECF8CB108951F929D
S11300B00F920FB60F9211242F933F934F935F9398
S11300C06F937F938F939F93AF93BF93EF93FF931C
S11300D0E0916000F0916100EE0FFF1FEC59FF4FBB
S11300E080819181892BF9F4809162008337D9F45E
S11300F082E08BBB8FE493EC0197F1F700C0000022
S11301001BBA81E00E9449008AE780936200E09173
S11301106000F0916100EE0FFF1FEC59FF4F81E08A
S113012090E0918380838FE493EC0197F1F700C012
S113013000008FEF8ABFFF91EF91BF91AF919F9124
S11301408F917F916F915F914F913F912F910F907C
S11301500FBE0F901F901895D19A10BC8CE089B9EE
S113016082E08BB988E18AB986E880BD85B7837F50
S113017085BF85B7886085BF80E88BBF7894D3E757
S1130180C2E00E9453008337E1F7809160009091B0
S1130190610001969093610080936000E09160009B
S11301A0F0916100EE0FFF1FEC59FF4F1182108296
S11301B0D0936200CBBB8FE493EC0197F1F700C0BE
S10D01C000001BBADECFF894FFCF55
S10701CAFFFF7A00B5
S9030000FC
