S017000041746D656761746F41726475696E6F2E7372656309
S11300000C9448000C945A000C9474000C945A00FC
S11300100C945A000C945A000C945A000C945A00F4
S11300200C945A000C945A000C945A000C945A00E4
S11300300C945A000C945A000C945A000C945A00D4
S11300400C945A000C945A000C945A000C945A00C4
S11300500C945A004E414E494E495459494E46CD8E
S1130060CCCC3D0AD7233C17B7D13877CC2B32956B
S113007095E6241FB14F0A000020410000C8420049
S1130080401C4620BCBE4CCA1B0E5AAEC59D740013
S113009011241FBECFE5D8E0DEBFCDBF20E0A0E62F
S11300A0B0E001C01D92A83AB207E1F70E94B00087
S11300B00C9478070C940000FB0122813381448165
S11300C05581FC0162817381848195810E94F101D3
S11300D00E945E02CB0108955D9BFECF8CB908950A
S11300E05F9BFECF8CB108951F920F920FB60F92B3
S11300F011242F933F934F935F936F937F938F9329
S11301009F93AF93BF93EF93FF9387E08BBB87EAF3
S113011091E60197F1F700C000001BBA87EA91E667
S11301200197F1F700C0000082E60E946C0081E0B4
S113013090E090936300809362008FEF8ABFFF91F9
S1130140EF91BF91AF919F918F917F916F915F914B
S11301504F913F912F910F900FBE0F901F901895C4
S1130160CF93DF93CDB7DEB764970FB6F894DEBFB5
S11301700FBECDBFD0988AB38E688ABB10BC8CE00A
S113018089B91BB888E18AB986E880BD85B7837FC1
S113019085BF85B7886085BF80E88BBF78946894F5
S11301A0CC24C1F86894FF24F2F804E610E06894C3
S11301B0DD24D1F8E12CC89BAEC0CBBA8FE493EC1C
S11301C00197F1F700C000001BBA83E70E946C009E
S11301D0A3ECB9E01197F1F700C000000E94700091
S11301E0BFEDE2E2F2E0B150E040F040E1F700C0E0
S11301F000009FE9980F9A3130F0E0916100F0E03F
S1130200EC59FF4F808380916100E82FF0E0EC59B6
S1130210FF4F9081943209F070C0FBBA8FE493ECE5
S11302200197F1F700C000001BBAE0916100F0E013
S1130230EC59FF4F11828091600090E0FC01EE0FB9
S1130240FF1FE80FF91FEE0FFF1FEE57FF4FD801F6
S11302508C9190E0C0979183808312962C912432E4
S1130260A1F08D2D9E2D32E0EFEFFFEFEC0FFD1F7F
S1130270E80FF91F20833F5F832F90E0FC01EC59C6
S1130280FF4F2081243281F702C08D2D9E2DEFEF88
S1130290FFEFEC0FFD1FE80FF91F1082CE0101964E
S11302A00E94CA0420916000422F50E0FA01EE0F30
S11302B0FF1FE40FF51FEE0FFF1FEE57FF4F628382
S11302C07383848395832F5F2093600089818823BF
S11302D079F05E01B2E0AB0EB11C0E946C00E3E069
S11302E0EA95F1F70000D5018D915D018111F5CFFB
S11302F010926100F801108203C08F5F8093610047
S11303008091620090916300019709F067CF109289
S11303106300109262002CE530E046E050E066E0B5
S113032070E082E890E00E942603809160008823B8
S113033009F44DC009F449C00F2EF2E88F2EF0E005
S11303409F2EF02DA12CB12CFBBAFFE12FEB32E054
S1130350F15020403040E1F700C00000D4018D91FD
S11303609C918130910559F4CBBABFE1EFEBF2E0F7
S1130370B150E040F040E1F700C000000FC0029728
S113038069F4FBBA2FE13FEB82E02150304080401A
S1130390E1F700C0000082E30E946C001BBA9FE1F9
S11303A0AFEBB2E09150A040B040E1F700C00000D4
S11303B0EFEFAE1ABE0AF6E08F0E911C809160003A
S11303C090E0A816B9060CF4BFCF1092600080E844
S11303D08BBB87EA91E60197F1F700C000001BBAD6
S11303E0EACE5058BB27AA270E9409020C94AB02FC
S11303F00E949D0238F00E94A40220F039F49F3F2D
S113040019F426F40C949A020EF4E095E7FB0C948C
S11304109402E92F0E94BC0258F3BA1762077307CB
S11304208407950720F079F4A6F50C94DE020EF407
S1130430E0950B2EBA2FA02D0B01B90190010C01F0
S1130440CA01A0011124FF27591B99F0593F50F408
S1130450503E68F11A16F040A22F232F342F442760
S1130460585FF3CF469537952795A795F040539558
S1130470C9F77EF41F16BA0B620B730B840BBAF028
S11304809150A1F0FF0FBB1F661F771F881FC2F793
S11304900EC0BA0F621F731F841F48F487957795A7
S11304A06795B795F7959E3F08F0B0CF9395880F61
S11304B008F09927EE0F9795879508950E94650295
S11304C06894B1110C94DF0208950E94C40288F06C
S11304D09F5798F0B92F9927B751B0F0E1F0660F04
S11304E0771F881F991F1AF0BA95C9F714C0B13045
S11304F091F00E94DE02B1E008950C94DE02672FB1
S1130500782F8827B85F39F0B93FCCF38695779573
S11305106795B395D9F73EF490958095709561955C
S11305207F4F8F4F9F4F089597F99F6780E870E042
S113053060E008959FEF80EC089500240A94161655
S1130540170618060906089500240A9412161306BD
S1130550140605060895092E0394000C11F488234B
S113056052F0BB0F40F4BF2B11F460FF04C06F5F67
S11305707F4F8F4F9F4F089557FD9058440F551F3D
S113058059F05F3F71F04795880F97FB991F61F011
S11305909F3F79F087950895121613061406551F88
S11305A0F2CF4695F1DF08C0161617061806991FF4
S11305B0F1CF86957105610508940895E894BB27E9
S11305C066277727CB0197F90895DC01FB018C910D
S11305D090819D9381934150510914161506BCF3E3
S11305E00895A0E0B0E0E7EFF2E00C943C077C0152
S11305F06B01D42FC52F8901F90109956D2F7C2F2B
S113060097FF10C0C601F801099597FF02C0C60103
S113061018C06D2F7C2FC701F801099597FD0FC0F5
S1130620C7010FC0C601F8010995181619067CF315
S11306306D2F7C2FC701F801099597FDF1CF8D2F00
S11306409C2FCDB7DEB7E8E00C945807AAE0B0E0E1
S1130650ECE2F3E00C9432078C017B015A87498762
S1130660690129853A85200F311F3A83298337E0B0
S1130670E316F10470F569807A8049855A85E49E11
S11306805001E59EB00CF49EB00C1124A00EB11ED6
S11306906A147B0408F07AC173010E151F0528F053
S11306A089859A85680E791EF3CF4701E985FA8515
S11306B08E1A9F0AB701C401F60109951816190686
S11306C07CF749855A85B401C7010E94E50274018B
S11306D0E4CFC7019695879529853A85829F500175
S11306E0839FB00C929FB00C1124A00EB11EA701E1
S11306F0415051095C834B8357E0E516F10409F43A
S11307004CC08B819C81829F3001839F700C929F8F
S1130710700C1124600E711E99E2E916F104A8F11F
S1130720C70143E0969587954A95E1F7829F40017A
S1130730839F900C929F900C11241401220C331C63
S1130740A801420D531DB801680D791D9601C80119
S11307500E94F1022C01A501480D591D9194819428
S113076091089601B501C501880D991D0E94F102F9
S11307705C01B301680D791D9601A301C3018219BF
S113078093090E94F1023C0101C028019601A301D2
S1130790B501C2010E94F1025C0149855A85B50187
S11307A0C8010E94E50269807A802B813C814985D9
S11307B05A85249FF001259FF00D349FF00D1124DC
S11307C0FE83ED835F01A00EB11E460D571D5C83B1
S11307D04B83250113011A8219828B809C808985A1
S11307E09A85881A990AA814B90408F450C0B80163
S11307F0C401F601099518161906C4F1892B71F480
S113080049855A85B401C1010E94E50289859A850A
S1130810280E391EE1E0F0E0FA83E9832B813C8164
S113082049855A85240F351F3C832B83D6CFB801C5
S1130830C501F6010995950149855A85241B350B97
S113084038872F8397FD16C0892B71F449855A8503
S1130850B201C5010E94E50229853A85421A530A6C
S113086041E050E05A834983AF80B884A814B904A6
S1130870F0F60DC049855A85B501C4010E94E50210
S1130880AF80B88441E050E05A834983C7CF89815F
S11308909A81892B09F44FC06D807E8029853A8521
S11308A0620E731E600E711E7401E218F308A1013A
S11308B0401B510BE416F5060CF4A701141615069B
S11308C034F4B401641B750BC8010E94E502A20153
S11308D04A195B095A01A3014419550989859A8566
S11308E0481B590BA416B50608F4A50114161506E1
S11308F034F4B301641B750BC4010E94E502E9855D
S1130900FA85EE15FF0548F4C701BF010E941307DD
S11309109601AF01C8010E94260329853A852A154C
S11309203B05A0F583010A191B09C501B9010E9401
S113093013077B0196CEE985FA85EE9E5001EF9E62
S1130940B00CFE9EB00C1124A00EB11E6A147B04E0
S1130950E8F473010E151F0528F089859A85680E41
S1130960791EF4CF4701E985FA858E1A9F0AB701EB
S1130970C401F6010995181619067CF749855A85AC
S1130980B401C7010E94E5027401E4CF2A96E2E1B2
S11309900C944E07662777270C94CE04A0E0B0E0B1
S11309A0E4EDF4E00C943807EC016B01611571057A
S11309B019F0FB01918380837E01FFEFEF1AFF0A98
S11309C00881802F90E00E941C06892B11F0E7011A
S11309D0F3CF0D3239F47E0182E0E80EF11C098177
S11309E011E008C00B3229F47E0192E0E90EF11CFB
S11309F0098110E0E701219743E050E06CE570E0E5
S1130A00CE010E942506892BC1F4239645E050E0CF
S1130A1067E570E0CE010E942506892B09F425962E
S1130A20C114D10419F0F601D183C0831111F6C0A9
S1130A3060E070E080E89FE7FAC043E050E064E5DE
S1130A4070E0CE010E942506892B59F4C114D1040B
S1130A5009F4E9C0F2E0EF0EF11CF601F182E08244
S1130A60E2C020E030E0A901C0E0D0E0F70180ED71
S1130A70A82EA00E89E08A1530F1912F9260B92E2C
S1130A80812F887012FF04C0811124C0219622C0D6
S1130A9081112197A5E0B0E00E942707DC01CB017A
S1130AA0880F991FAA1FBB1F9C01AD012A0D311D80
S1130AB0411D511D283989E93807480789E158073C
S1130AC048F0166006C09EEFA9120AC013FD40C08C
S1130AD01860B12E8FEFE81AF80A00811B2DC6CFDB
S1130AE0802F8F7D8534A1F580818D3211F41061C2
S1130AF006C08B3221F0319661E070E004C0818140
S1130B00329662E070E080538A3018F0E61BF70BEF
S1130B101FC060E070E060389CE079075CF4DB01A2
S1130B20AA0FBB1FAA0FBB1F6A0F7B1F660F771F7D
S1130B30680F711D3196DF0111978C9180538A30B3
S1130B4050F314FF03C0719561957109C60FD71F47
S1130B5011FF08C0C114D10429F0CF010197F60197
S1130B6091838083CA01B9010E944206212F237018
S1130B70233019F04B015C0106C04B015C01B7FA4C
S1130B80B094B7F8B09420E030E0A901C501B401F5
S1130B900E943D06882309F43EC0D7FF06C0D195C4
S1130BA0C195D10903E710E002C00BE810E0680129
S1130BB0F8E1CF1AD10890E2E92EF12CCE15DF0529
S1130BC074F0F8012591359145915491C501B40112
S1130BD00E94A3064B015C01CE19DF09EFCF04503C
S1130BE01109F594E7940C151D0541F78A2D880F1A
S1130BF08B2D881F8F3F49F020E030E0A901C5010B
S1130C00B4010E943D06811106C082E290E09093F7
S1130C10A7008093A600C501B40109C060E070E09C
S1130C2080E89FEF04C060E070E080EC9FE7CDB700
S1130C30DEB7ECE00C94540791110C941007803249
S1130C4019F089508550C8F70895FB01DC01415023
S1130C50504088F08D9181341CF08B350CF4805E0B
S1130C60659161341CF06B350CF4605E861B611178
S1130C7071F3990B0895881BFCCF0E947F0608F43A
S1130C8081E00895E89409C097FB3EF4909580951F
S1130C90709561957F4F8F4F9F4F9923A9F0F92F3E
S1130CA096E9BB279395F695879577956795B795BC
S1130CB0F111F8CFFAF4BB0F11F460FF1BC06F5FA2
S1130CC07F4F8F4F9F4F16C0882311F096E911C0B4
S1130CD0772321F09EE8872F762F05C0662371F0D5
S1130CE096E8862F70E060E02AF09A95660F771FE9
S1130CF0881FDAF7880F9695879597F90895990FC5
S1130D000008550FAA0BE0E8FEEF16161706E807D1
S1130D10F907C0F012161306E407F50798F0621BF2
S1130D20730B840B950B39F40A2661F0232B242BC7
S1130D30252B21F408950A2609F4A140A6958FEFE6
S1130D40811D811D08950E94B6060C94AB020E9479
S1130D509D0238F00E94A40220F0952311F00C9417
S1130D6094020C949A0211240C94DF020E94BC0297
S1130D7070F3959FC1F3950F50E0551F629FF001EA
S1130D80729FBB27F00DB11D639FAA27F00DB11D03
S1130D90AA1F649F6627B00DA11D661F829F22278C
S1130DA0B00DA11D621F739FB00DA11D621F839F13
S1130DB0A00D611D221F749F3327A00D611D231FE9
S1130DC0849F600D211D822F762F6A2F11249F5737
S1130DD050409AF0F1F088234AF0EE0FFF1FBB1F3A
S1130DE0661F771F881F91505040A9F79E3F5105F9
S1130DF080F00C9494020C94DF025F3FE4F3983E7D
S1130E00D4F3869577956795B795F795E7959F5FA2
S1130E10C1F7FE2B880F911D9695879597F9089534
S1130E20992788270895AA1BBB1B51E107C0AA1F55
S1130E30BB1FA617B70710F0A61BB70B881F991F77
S1130E405A95A9F780959095BC01CD0108950E940B
S1130E506907A59F900DB49F900DA49F800D911DCF
S1130E60112408952F923F924F925F926F927F9236
S1130E708F929F92AF92BF92CF92DF92EF92FF92A6
S1130E800F931F93CF93DF93CDB7DEB7CA1BDB0B52
S1130E900FB6F894DEBF0FBECDBF09942A883988F7
S1130EA048885F846E847D848C849B84AA84B984FE
S1130EB0C884DF80EE80FD800C811B81AA81B9810A
S1130EC0CE0FD11D0FB6F894DEBF0FBECDBFED011E
S1130ED00895A29FB001B39FC001A39F700D811D0F
S1130EE01124911DB29F700D811D1124911D08952F
S1070EF0F894FFCFA0
S9030000FC
