:100000000C942A000C943C000C944C000C943C0082
:100010000C943C000C943C000C943C000C943C0070
:100020000C943C000C943C000C943C000C943C0060
:100030000C943C000C943C000C943C000C943C0050
:100040000C943C000C943C000C943C000C943C0040
:100050000C943C0011241FBECFE5D8E0DEBFCDBF1D
:1000600020E0A0E6B0E001C01D92A236B207E1F7A1
:100070000E9488000C94E2000C9400005D9BFECF6F
:100080008CB987E893E10197F1F700C0000008956B
:100090005F9BFECF8CB108951F920F920FB60F9207
:1000A00011242F933F934F935F936F937F938F937D
:1000B0009F93AF93BF93EF93FF9387E08BBB87EA48
:1000C00091E60197F1F700C000001BBA82E60E949A
:1000D0003E0081E090E090936100809360008FE4A7
:1000E00093EC0197F1F700C000008FEF8ABFFF91FA
:1000F000EF91BF91AF919F918F917F916F915F91A0
:100100004F913F912F910F900FBE0F901F90189518
:10011000D0988AB38E688ABB10BC8CE089B982E023
:100120008BB988E18AB986E880BD85B7837F85BFB2
:1001300085B7886085BF80E88BBF789402E014E0C3
:10014000D8E0C0E8C89B35C00BBB8FE493EC0197A7
:10015000F1F700C000001BBA83E70E943E0083EC69
:1001600099E00197F1F700C000000E9448001CB818
:10017000813341F41BBB8FE493EC0197F1F700C08E
:1001800000001BBA0E9448001CB8823341F4DBBB5C
:100190008FE493EC0197F1F700C000001BBA809147
:1001A000600090916100019701F710926100109238
:1001B0006000CBBB87EA91E60197F1F700C0000031
:0801C0001BBAC0CFF894FFCF79
:00000001FF
