S014000061746D7265636672617264312E7372656354
S11300000C94A7000C94C4000C94C4000C94C40079
S11300100C94C4000C94C4000C94CE000C94C40042
S11300200C94C4000C94AB010C94C4000C94C40054
S11300300C94C4000C94C4000C94C4000C94C4002C
S11300400C94C4000C94C4000C94C4000C94C4001C
S11300500C94C40000407A10F35A00A0724E1809A0
S11300600010A5D4E80000E87648170000E40B541B
S1130070020000CA9A3B000000E1F50500008096EA
S11300809800000040420F000000A086010000001C
S1130090102700000000E8030000000064000000D6
S11300A000000A00000000000100000000002C769F
S11300B0D888DC674F0823DFC1DFAE59E1B1B796BA
S11300C0E5E3E453C63AE651997696E8E6C2842617
S11300D0EB898C9B62ED407C6FFCEFBC9C9F40F2F3
S11300E0BAA56FA5F490055A2AF75C936B6CF9676F
S11300F06DC11BFCE0E40D47FEF520E6B500D0ED34
S1130100902E0300943577050080841E080000209B
S11301104E0A000000C80C333333330F986E128339
S11301201141EF8D2114893BE65516CFFEE6DB180D
S1130130D1844B381BF77C1D901DA4BBE4242032D2
S113014084725E228100C9F124ECA1E53D271124CB
S11301501FBECFE5D8E0DEBFCDBF10E0A0E6B0E023
S1130160E0EEFBE002C005900D92A436B107D9F78A
S113017020E0A4E6B0E001C01D92A43EB207E1F77E
S11301800E94C2010C94EE050C9400005D9BFECF0E
S11301908CB908955F9BFECF8CB108951F920F9286
S11301A00FB60F921124CF92DF92EF92FF920F932A
S11301B01F932F933F934F935F936F937F938F93EB
S11301C09F93AF93BF93EF93FF93CF93DF9300D0AD
S11301D0CDB7DEB7E0916000F0916100EE0FFF1F34
S11301E0E258FF4F80819181892B09F099C0809159
S11301F06200833709F094C086B597B59093650083
S11302008093640082E08BBB8FE493EC0197F1F759
S113021000C000001BBA82E30E94C60093E09A95D6
S1130220F1F7000081E20E94C60083E08A95F1F7AD
S113023000006091E2007091E3000091640010916D
S1130240650080E090E00E946A022DEB37E346E807
S11302505DE30E94F8026B017C01B80180E090E04C
S11302600E946A022DEB37E346E855E30E94F80248
S11302709B01AC01C701B6010E94FE0160937A00A4
S113028070937B0080937C0090937D0060917A0052
S113029070917B0080917C0090917D0006E610E0D7
S11302A026E045E00E9465031A821982E981FA81F9
S11302B0EA59FF4F80818823B9F0E981FA81EA592C
S11302C0FF4F80810E94C60093E09A95F1F70000E9
S11302D089819A8101969A838983E981FA81EA590D
S11302E0FF4F80818111E9CF84E20E94C60083E040
S11302F08A95F1F700001DBC1CBC1092E30010921B
S1130300E2008AE780936200E0916000F09161006E
S1130310EE0FFF1FE258FF4F81E090E0918380834E
S11303200F900F90DF91CF91FF91EF91BF91AF911B
S11303309F918F917F916F915F914F913F912F91F9
S11303401F910F91FF90EF90DF90CF900F900FBE11
S11303500F901F9018951F920F920FB60F921124B1
S11303608F939F938091E2009091E3000196909384
S1130370E3008093E2009F918F910F900FBE0F9046
S11303801F901895D19A10BC8CE089B982E08BB982
S113039088E18AB986E880BD8E981FBC81E48EBD51
S11303A084E289BF7894D3E7C2E00E94CA0083370D
S11303B0E1F7809160009091610001969093610053
S11303C080936000E0916000F0916100EE0FFF1FE8
S11303D0E258FF4F11821082D0936200CBBB8FE4AE
S11303E093EC0197F1F700C000001BBA1092E300F0
S11303F01092E2001DBC1CBCD8CF5058BB27AA27C2
S11304000E9415020C94BE020E94B00238F00E94B1
S1130410B70220F039F49F3F19F426F40C94AD028E
S11304200EF4E095E7FB0C94A702E92F0E94CF029B
S113043058F3BA17620773078407950720F079F415
S1130440A6F50C94F1020EF4E0950B2EBA2FA02D14
S11304500B01B90190010C01CA01A0011124FF276D
S1130460591B99F0593F50F4503E68F11A16F04068
S1130470A22F232F342F4427585FF3CF4695379567
S11304802795A795F0405395C9F77EF41F16BA0B2C
S1130490620B730B840BBAF09150A1F0FF0FBB1FDA
S11304A0661F771F881FC2F70EC0BA0F621F731F23
S11304B0841F48F4879577956795B795F7959E3F80
S11304C008F0B0CF9395880F08F09927EE0F979511
S11304D087950895E89409C097FB3EF4909580951C
S11304E0709561957F4F8F4F9F4F9923A9F0F92FF6
S11304F096E9BB279395F695879577956795B79574
S1130500F111F8CFFAF4BB0F11F460FF1BC06F5F59
S11305107F4F8F4F9F4F16C0882311F096E911C06B
S1130520772321F09EE8872F762F05C0662371F08C
S113053096E8862F70E060E02AF09A95660F771FA0
S1130540881FDAF7880F9695879597F9089597F994
S11305509F6780E870E060E008959FEF80EC089565
S113056000240A941616170618060906089500248E
S11305700A9412161306140605060895092E039408
S1130580000C11F4882352F0BB0F40F4BF2B11F47C
S113059060FF04C06F5F7F4F8F4F9F4F089557FDDB
S11305A09058440F551F59F05F3F71F04795880FDD
S11305B097FB991F61F09F3F79F087950895121674
S11305C013061406551FF2CF4695F1DF08C0161620
S11305D017061806991FF1CF8695710561050894D1
S11305E00895E894BB2766277727CB0197F90895E8
S11305F00E940B030C94BE020E94B00238F00E94C9
S1130600B70220F0952311F00C94A7020C94AD02CC
S113061011240C94F2020E94CF0270F3959FC1F34F
S1130620950F50E0551F629FF001729FBB27F00D9C
S1130630B11D639FAA27F00DB11DAA1F649F6627F1
S1130640B00DA11D661F829F2227B00DA11D621F40
S1130650739FB00DA11D621F839FA00D611D221FFA
S1130660749F3327A00D611D231F849F600D211DDE
S1130670822F762F6A2F11249F5750409AF0F1F061
S113068088234AF0EE0FFF1FBB1F661F771F881FCA
S113069091505040A9F79E3F510580F00C94A70259
S11306A00C94F2025F3FE4F3983ED4F38695779579
S11306B06795B795F795E7959F5FC1F7FE2B880F70
S11306C0911D9695879597F90895EF920F931F932F
S11306D0CF93DF93E80147FD02C034E001C034E169
S11306E0042E000C550B57FF03C051954195510939
S11306F0E32E022F242FAE010E948503CE01DF9149
S1130700CF911F910F91EF900895A9E0B0E0EBE82D
S1130710F3E00C94BD056A01122FB02E2BE32017D1
S113072020F0FF24F394F00E02C02CE3F22E0F2DE0
S113073027E0AE014F5F5F4F0E94DF04BC01498197
S1130740842F8970813031F0E1FC06C0E0FE06C0E0
S113075090E205C09DE203C09BE201C090E05E2DE3
S1130760507143FF3CC0911102C083E001C084E09A
S1130770811718F4212F281B01C020E051110BC050
S1130780F601822F30E2882319F031938150FBCF98
S1130790C20ED11C20E0992329F0D6019C93F601C6
S11307A031966F01C6010396E2FE0AC03EE4D6010B
S11307B03C9341E411964C93119712963C9306C0D6
S11307C03EE6F601308341E641833283FC01322F59
S11307D040E2332309F442C041933150FACF42FF3F
S11307E044C0911102C083E001C084E0811718F471
S11307F0212F281B01C020E051110BC0F601822FCC
S113080030E2882319F031938150FBCFC20ED11C02
S113081020E0992329F0D6019C93F60131966F01CB
S1130820C6010396E2FE0BC039E4D6013C933EE4D4
S113083011963C93119736E412963C9307C039E61F
S1130840F60130833EE6318336E63283FC01322FF3
S113085040E2332319F041933150FBCFFC01E20F06
S1130860F11D10828EEF9FEFA6C021E030E09111C0
S113087002C020E030E0161617061CF4FB01319686
S113088002C0E1E0F0E02E0F3F1FBB2021F0EB2D72
S1130890F0E0319602C0E0E0F0E02E0F3F1FE12FC0
S11308A0F0E02E173F071CF4121B212F01C020E09B
S11308B08E2D887159F4F601822F30E2882319F0C5
S11308C031938150FBCFC20ED11C20E0992329F033
S11308D0D6019C93F60131966F0151110BC0F601BC
S11308E0822F90E3882319F091938150FBCFC20E9D
S11308F0D11C20E00F2D060F9A81342F307144FF54
S113090003C0913309F40150101624F4093018F08F
S113091008E001C001E0AB0177FF02C040E050E015
S1130920FB01E41BF50BA1E0B0E0AC0FBD1FEA0F27
S1130930FB1F8EE2A82E4B01801A91080B2D10E0AC
S11309401195019511094F3FBFEF5B0721F4D601C3
S1130950AC9211966D01641775072CF084169506F8
S113096014F4818101C080E3415051093196D601CC
S113097011967D014017510724F0D6018C9367012D
S1130980E2CF6417750739F4963320F4953319F4DC
S1130990311101C081E3F6018083F701822F90E2D7
S11309A0882319F091938150FBCFF701E20FF11DD9
S11309B0108280E090E02996ECE00C94D905283070
S11309C008F027E03327DA01990F311D87FD916084
S11309D000966105710539F432602E5F3D9330E372
S11309E02A95E1F708959F3F30F08038710561053D
S11309F009F03C5F3C5F3D93913008F08068911DA5
S1130A00DF93CF931F930F93FF92EF92192F987F49
S1130A109695E92F96959695E90FFF27E255FF4F96
S1130A2099273327EE24FF24A701E70105900894B2
S1130A30079428F4360FE71EF81E491F511D660F50
S1130A40771F881F991F0694A1F70590079428F42F
S1130A50E70EF81E491F561FC11D770F881F991FE7
S1130A60661F0694A1F70590079428F4F80E491F11
S1130A70561FC71FD11D880F991F661F771F069425
S1130A80A1F70590079420F4490F561FC71FD81FDC
S1130A90990F661F771F881F0694A9F784911095F4
S1130AA0177041F0D695C79557954795F794E794F5
S1130AB01A95C1F7E4E5F0E0689415901591359125
S1130AC06591959105907FE27395E118F10A430BC6
S1130AD0560BC90BD009C0F7E10CF11E431F561F7A
S1130AE0C91FD01D7EF4703311F48A95E6CFE894C3
S1130AF0015030F0080F0AF40027021708F4202FE1
S1130B002395022F7A3328F079E37D932A95E9F728
S1130B1010C07D932A9589F6069497956795379525
S1130B2017951794E118F10A430B560BC90BD0091A
S1130B3098F023957E9173957A3308F070E37C9353
S1130B402013B8F77E9170617D9330F0839571E343
S1130B507D9370E32A95E1F71124EF90FF900F91B4
S1130B601F91CF91DF91992787FD909508952F923A
S1130B703F924F925F926F927F928F929F92AF9229
S1130B80BF92CF92DF92EF92FF920F931F93CF9376
S1130B90DF93CDB7DEB7CA1BDB0B0FB6F894DEBF0D
S1130BA00FBECDBF09942A88398848885F846E8433
S1130BB07D848C849B84AA84B984C884DF80EE807D
S1130BC0FD800C811B81AA81B981CE0FD11D0FB686
S1130BD0F894DEBF0FBECDBFED010895F894FFCFAA
S1070BE0FFFF7A0095
S9030000FC
